{
  "_format": "hh-sol-artifact-1",
  "contractName": "Organization",
  "sourceName": "contracts/Organization.sol",
  "abi": [
    {
      "inputs": [],
      "stateMutability": "nonpayable",
      "type": "constructor"
    },
    {
      "inputs": [
        {
          "internalType": "uint256",
          "name": "",
          "type": "uint256"
        }
      ],
      "name": "campaigns",
      "outputs": [
        {
          "internalType": "address",
          "name": "",
          "type": "address"
        }
      ],
      "stateMutability": "view",
      "type": "function"
    },
    {
      "inputs": [],
      "name": "campaignsCount",
      "outputs": [
        {
          "internalType": "uint256",
          "name": "",
          "type": "uint256"
        }
      ],
      "stateMutability": "view",
      "type": "function"
    },
    {
      "inputs": [],
      "name": "contribute",
      "outputs": [],
      "stateMutability": "payable",
      "type": "function"
    },
    {
      "inputs": [
        {
          "internalType": "address",
          "name": "campaignAddress",
          "type": "address"
        }
      ],
      "name": "enrollInCampaign",
      "outputs": [],
      "stateMutability": "nonpayable",
      "type": "function"
    },
    {
      "inputs": [],
      "name": "getAllCampaigns",
      "outputs": [
        {
          "internalType": "address[]",
          "name": "",
          "type": "address[]"
        }
      ],
      "stateMutability": "view",
      "type": "function"
    },
    {
      "inputs": [],
      "name": "getBalance",
      "outputs": [
        {
          "internalType": "uint256",
          "name": "",
          "type": "uint256"
        }
      ],
      "stateMutability": "view",
      "type": "function"
    },
    {
      "inputs": [],
      "name": "getCampaignsCount",
      "outputs": [
        {
          "internalType": "uint256",
          "name": "",
          "type": "uint256"
        }
      ],
      "stateMutability": "view",
      "type": "function"
    },
    {
      "inputs": [],
      "name": "getMinimumContribution",
      "outputs": [
        {
          "internalType": "uint256",
          "name": "",
          "type": "uint256"
        }
      ],
      "stateMutability": "view",
      "type": "function"
    },
    {
      "inputs": [],
      "name": "incrementCampaignsCount",
      "outputs": [],
      "stateMutability": "nonpayable",
      "type": "function"
    },
    {
      "inputs": [],
      "name": "minimumContribution",
      "outputs": [
        {
          "internalType": "uint256",
          "name": "",
          "type": "uint256"
        }
      ],
      "stateMutability": "view",
      "type": "function"
    },
    {
      "inputs": [],
      "name": "owner",
      "outputs": [
        {
          "internalType": "address",
          "name": "",
          "type": "address"
        }
      ],
      "stateMutability": "view",
      "type": "function"
    },
    {
      "inputs": [
        {
          "internalType": "address payable",
          "name": "recipient",
          "type": "address"
        }
      ],
      "name": "withdrawAllMoney",
      "outputs": [],
      "stateMutability": "nonpayable",
      "type": "function"
    },
    {
      "inputs": [
        {
          "internalType": "address payable",
          "name": "recipient",
          "type": "address"
        },
        {
          "internalType": "uint256",
          "name": "amount",
          "type": "uint256"
        }
      ],
      "name": "withdrawMoney",
      "outputs": [],
      "stateMutability": "nonpayable",
      "type": "function"
    }
  ],
  "bytecode": "0x608060405234801561001057600080fd5b50336000806101000a81548173ffffffffffffffffffffffffffffffffffffffff021916908373ffffffffffffffffffffffffffffffffffffffff1602179055506000600481905550610b55806100686000396000f3fe6080604052600436106100c25760003560e01c806386cdf6041161007f578063d0e0622011610059578063d0e0622014610246578063d7bb99ba1461026f578063f274c89714610279578063f84038b1146102a2576100c2565b806386cdf604146101c55780638da5cb5b146101f0578063937e09b11461021b576100c2565b80630adec93c146100c757806312065fe0146100f0578063141961bc1461011b57806344c89b65146101585780637dafd3c0146101835780637e6253da1461019a575b600080fd5b3480156100d357600080fd5b506100ee60048036038101906100e99190610753565b6102cd565b005b3480156100fc57600080fd5b50610105610376565b6040516101129190610799565b60405180910390f35b34801561012757600080fd5b50610142600480360381019061013d91906107e0565b61037e565b60405161014f919061082e565b60405180910390f35b34801561016457600080fd5b5061016d6103bd565b60405161017a9190610799565b60405180910390f35b34801561018f57600080fd5b506101986103c3565b005b3480156101a657600080fd5b506101af6103dd565b6040516101bc9190610799565b60405180910390f35b3480156101d157600080fd5b506101da6103e7565b6040516101e79190610907565b60405180910390f35b3480156101fc57600080fd5b50610205610475565b604051610212919061082e565b60405180910390f35b34801561022757600080fd5b50610230610499565b60405161023d9190610799565b60405180910390f35b34801561025257600080fd5b5061026d60048036038101906102689190610955565b61049f565b005b610277610514565b005b34801561028557600080fd5b506102a0600480360381019061029b9190610982565b61056d565b005b3480156102ae57600080fd5b506102b7610624565b6040516102c49190610799565b60405180910390f35b60008054906101000a900473ffffffffffffffffffffffffffffffffffffffff1673ffffffffffffffffffffffffffffffffffffffff163373ffffffffffffffffffffffffffffffffffffffff161461032557600080fd5b8073ffffffffffffffffffffffffffffffffffffffff166108fc610347610376565b9081150290604051600060405180830381858888f19350505050158015610372573d6000803e3d6000fd5b5050565b600047905090565b6003818154811061038e57600080fd5b906000526020600020016000915054906101000a900473ffffffffffffffffffffffffffffffffffffffff1681565b60025481565b600260008154809291906103d6906109f1565b9190505550565b6000600254905090565b6060600380548060200260200160405190810160405280929190818152602001828054801561046b57602002820191906000526020600020905b8160009054906101000a900473ffffffffffffffffffffffffffffffffffffffff1673ffffffffffffffffffffffffffffffffffffffff1681526020019060010190808311610421575b5050505050905090565b60008054906101000a900473ffffffffffffffffffffffffffffffffffffffff1681565b60015481565b6003600254106104ae57600080fd5b6003819080600181540180825580915050600190039060005260206000200160009091909190916101000a81548173ffffffffffffffffffffffffffffffffffffffff021916908373ffffffffffffffffffffffffffffffffffffffff16021790555050565b6105526040518060400160405280600b81526020017f576520617265206865726500000000000000000000000000000000000000000081525061062e565b34600460008282546105649190610a39565b92505081905550565b60008054906101000a900473ffffffffffffffffffffffffffffffffffffffff1673ffffffffffffffffffffffffffffffffffffffff163373ffffffffffffffffffffffffffffffffffffffff16146105c557600080fd5b6105cd610376565b8111156105d957600080fd5b8173ffffffffffffffffffffffffffffffffffffffff166108fc829081150290604051600060405180830381858888f1935050505015801561061f573d6000803e3d6000fd5b505050565b6000600154905090565b6106c4816040516024016106429190610afd565b6040516020818303038152906040527f41304fac000000000000000000000000000000000000000000000000000000007bffffffffffffffffffffffffffffffffffffffffffffffffffffffff19166020820180517bffffffffffffffffffffffffffffffffffffffffffffffffffffffff83818316178352505050506106c7565b50565b60008151905060006a636f6e736f6c652e6c6f679050602083016000808483855afa5050505050565b600080fd5b600073ffffffffffffffffffffffffffffffffffffffff82169050919050565b6000610720826106f5565b9050919050565b61073081610715565b811461073b57600080fd5b50565b60008135905061074d81610727565b92915050565b600060208284031215610769576107686106f0565b5b60006107778482850161073e565b91505092915050565b6000819050919050565b61079381610780565b82525050565b60006020820190506107ae600083018461078a565b92915050565b6107bd81610780565b81146107c857600080fd5b50565b6000813590506107da816107b4565b92915050565b6000602082840312156107f6576107f56106f0565b5b6000610804848285016107cb565b91505092915050565b6000610818826106f5565b9050919050565b6108288161080d565b82525050565b6000602082019050610843600083018461081f565b92915050565b600081519050919050565b600082825260208201905092915050565b6000819050602082019050919050565b61087e8161080d565b82525050565b60006108908383610875565b60208301905092915050565b6000602082019050919050565b60006108b482610849565b6108be8185610854565b93506108c983610865565b8060005b838110156108fa5781516108e18882610884565b97506108ec8361089c565b9250506001810190506108cd565b5085935050505092915050565b6000602082019050818103600083015261092181846108a9565b905092915050565b6109328161080d565b811461093d57600080fd5b50565b60008135905061094f81610929565b92915050565b60006020828403121561096b5761096a6106f0565b5b600061097984828501610940565b91505092915050565b60008060408385031215610999576109986106f0565b5b60006109a78582860161073e565b92505060206109b8858286016107cb565b9150509250929050565b7f4e487b7100000000000000000000000000000000000000000000000000000000600052601160045260246000fd5b60006109fc82610780565b91507fffffffffffffffffffffffffffffffffffffffffffffffffffffffffffffffff8203610a2e57610a2d6109c2565b5b600182019050919050565b6000610a4482610780565b9150610a4f83610780565b9250828201905080821115610a6757610a666109c2565b5b92915050565b600081519050919050565b600082825260208201905092915050565b60005b83811015610aa7578082015181840152602081019050610a8c565b60008484015250505050565b6000601f19601f8301169050919050565b6000610acf82610a6d565b610ad98185610a78565b9350610ae9818560208601610a89565b610af281610ab3565b840191505092915050565b60006020820190508181036000830152610b178184610ac4565b90509291505056fea26469706673582212205fae651f1b79debdbf525c00199ded5e3786d7d530af08ab789c8462784f975964736f6c63430008110033",
  "linkReferences": {},
  "deployedLinkReferences": {}
}