{
  "address": "0x5FbDB2315678afecb367f032d93F642f64180aa3",
  "abi": [
    {
      "inputs": [],
      "stateMutability": "nonpayable",
      "type": "constructor"
    },
    {
      "inputs": [],
      "name": "Campaign__AlreadyEnrolled",
      "type": "error"
    },
    {
      "inputs": [],
      "name": "Campaign__MaximumCampaignsReached",
      "type": "error"
    },
    {
      "inputs": [],
      "name": "Campaign__NoOrganizationEnrolled",
      "type": "error"
    },
    {
      "inputs": [],
      "name": "Campaign__NotEnoughEthEntered",
      "type": "error"
    },
    {
      "inputs": [
        {
          "internalType": "address",
          "name": "",
          "type": "address"
        }
      ],
      "name": "contributers",
      "outputs": [
        {
          "internalType": "bool",
          "name": "",
          "type": "bool"
        }
      ],
      "stateMutability": "view",
      "type": "function"
    },
    {
      "inputs": [],
      "name": "contributersCount",
      "outputs": [
        {
          "internalType": "uint256",
          "name": "",
          "type": "uint256"
        }
      ],
      "stateMutability": "view",
      "type": "function"
    },
    {
      "inputs": [],
      "name": "disburseFunds",
      "outputs": [],
      "stateMutability": "nonpayable",
      "type": "function"
    },
    {
      "inputs": [
        {
          "internalType": "address",
          "name": "organization",
          "type": "address"
        }
      ],
      "name": "enrollOrganization",
      "outputs": [],
      "stateMutability": "nonpayable",
      "type": "function"
    },
    {
      "inputs": [],
      "name": "fund",
      "outputs": [],
      "stateMutability": "payable",
      "type": "function"
    },
    {
      "inputs": [],
      "name": "getBalance",
      "outputs": [
        {
          "internalType": "uint256",
          "name": "",
          "type": "uint256"
        }
      ],
      "stateMutability": "view",
      "type": "function"
    },
    {
      "inputs": [],
      "name": "getMinimumContribution",
      "outputs": [
        {
          "internalType": "uint256",
          "name": "",
          "type": "uint256"
        }
      ],
      "stateMutability": "view",
      "type": "function"
    },
    {
      "inputs": [],
      "name": "minimumContribution",
      "outputs": [
        {
          "internalType": "uint256",
          "name": "",
          "type": "uint256"
        }
      ],
      "stateMutability": "view",
      "type": "function"
    },
    {
      "inputs": [],
      "name": "minimumDisburseAllowed",
      "outputs": [
        {
          "internalType": "uint256",
          "name": "",
          "type": "uint256"
        }
      ],
      "stateMutability": "view",
      "type": "function"
    },
    {
      "inputs": [
        {
          "internalType": "uint256",
          "name": "",
          "type": "uint256"
        }
      ],
      "name": "organizations",
      "outputs": [
        {
          "internalType": "address",
          "name": "",
          "type": "address"
        }
      ],
      "stateMutability": "view",
      "type": "function"
    },
    {
      "inputs": [],
      "name": "owner",
      "outputs": [
        {
          "internalType": "address",
          "name": "",
          "type": "address"
        }
      ],
      "stateMutability": "view",
      "type": "function"
    },
    {
      "inputs": [
        {
          "internalType": "address payable",
          "name": "recipient",
          "type": "address"
        }
      ],
      "name": "withdrawMoney",
      "outputs": [],
      "stateMutability": "nonpayable",
      "type": "function"
    }
  ],
  "transactionHash": "0xec9ff01b9ff2134eded24542192ef7d662334c10f14e9ccf6f72551f8c82b120",
  "args": [],
  "numDeployments": 1,
  "solcInputHash": "f9549d9fc18e9e701e6c9fa0d62015bc",
  "bytecode": "0x608060405234801561001057600080fd5b50336000806101000a81548173ffffffffffffffffffffffffffffffffffffffff021916908373ffffffffffffffffffffffffffffffffffffffff160217905550610b59806100606000396000f3fe6080604052600436106100a75760003560e01c8063937e09b111610064578063937e09b1146101aa578063b60d4288146101d5578063e4133d6f146101df578063e792dd8a14610208578063e9f146a314610245578063f84038b114610270576100a7565b806312065fe0146100ac57806314ec993d146100d75780632f971029146100ee57806334b66460146101175780638da5cb5b1461015457806390e4f4c61461017f575b600080fd5b3480156100b857600080fd5b506100c161029b565b6040516100ce919061080c565b60405180910390f35b3480156100e357600080fd5b506100ec6102a3565b005b3480156100fa57600080fd5b506101156004803603810190610110919061088a565b610465565b005b34801561012357600080fd5b5061013e600480360381019061013991906108f5565b6104af565b60405161014b919061093d565b60405180910390f35b34801561016057600080fd5b506101696104cf565b6040516101769190610967565b60405180910390f35b34801561018b57600080fd5b506101946104f3565b6040516101a1919061080c565b60405180910390f35b3480156101b657600080fd5b506101bf6104ff565b6040516101cc919061080c565b60405180910390f35b6101dd610505565b005b3480156101eb57600080fd5b50610206600480360381019061020191906108f5565b610577565b005b34801561021457600080fd5b5061022f600480360381019061022a91906109ae565b6107a4565b60405161023c9190610967565b60405180910390f35b34801561025157600080fd5b5061025a6107e3565b604051610267919061080c565b60405180910390f35b34801561027c57600080fd5b506102856107e9565b604051610292919061080c565b60405180910390f35b600047905090565b60008054906101000a900473ffffffffffffffffffffffffffffffffffffffff1673ffffffffffffffffffffffffffffffffffffffff163373ffffffffffffffffffffffffffffffffffffffff16146102fb57600080fd5b670de0b6b3a764000061030c61029b565b1015610344576040517f46cec71a00000000000000000000000000000000000000000000000000000000815260040160405180910390fd5b600060048054905011610383576040517f94f26a8600000000000000000000000000000000000000000000000000000000815260040160405180910390fd5b600060048054905061039361029b565b61039d9190610a39565b905060005b60048054905081101561046157600481815481106103c3576103c2610a6a565b5b9060005260206000200160009054906101000a900473ffffffffffffffffffffffffffffffffffffffff1673ffffffffffffffffffffffffffffffffffffffff1663d7bb99ba836040518263ffffffff1660e01b81526004016000604051808303818588803b15801561043557600080fd5b505af1158015610449573d6000803e3d6000fd5b5050505050808061045990610a99565b9150506103a2565b5050565b8073ffffffffffffffffffffffffffffffffffffffff166108fc479081150290604051600060405180830381858888f193505050501580156104ab573d6000803e3d6000fd5b5050565b60026020528060005260406000206000915054906101000a900460ff1681565b60008054906101000a900473ffffffffffffffffffffffffffffffffffffffff1681565b670de0b6b3a764000081565b60015481565b6001600260003373ffffffffffffffffffffffffffffffffffffffff1673ffffffffffffffffffffffffffffffffffffffff16815260200190815260200160002060006101000a81548160ff0219169083151502179055506003600081548092919061057090610a99565b9190505550565b60008054906101000a900473ffffffffffffffffffffffffffffffffffffffff1673ffffffffffffffffffffffffffffffffffffffff163373ffffffffffffffffffffffffffffffffffffffff16146105cf57600080fd5b60005b600480549050811015610695578173ffffffffffffffffffffffffffffffffffffffff166004828154811061060a57610609610a6a565b5b9060005260206000200160009054906101000a900473ffffffffffffffffffffffffffffffffffffffff1673ffffffffffffffffffffffffffffffffffffffff1603610682576040517f5bb7d60100000000000000000000000000000000000000000000000000000000815260040160405180910390fd5b808061068d90610a99565b9150506105d2565b5060038173ffffffffffffffffffffffffffffffffffffffff16637e6253da6040518163ffffffff1660e01b8152600401602060405180830381865afa1580156106e3573d6000803e3d6000fd5b505050506040513d601f19601f820116820180604052508101906107079190610af6565b1061073e576040517f4dd7f2f900000000000000000000000000000000000000000000000000000000815260040160405180910390fd5b6004819080600181540180825580915050600190039060005260206000200160009091909190916101000a81548173ffffffffffffffffffffffffffffffffffffffff021916908373ffffffffffffffffffffffffffffffffffffffff16021790555050565b600481815481106107b457600080fd5b906000526020600020016000915054906101000a900473ffffffffffffffffffffffffffffffffffffffff1681565b60035481565b6000600154905090565b6000819050919050565b610806816107f3565b82525050565b600060208201905061082160008301846107fd565b92915050565b600080fd5b600073ffffffffffffffffffffffffffffffffffffffff82169050919050565b60006108578261082c565b9050919050565b6108678161084c565b811461087257600080fd5b50565b6000813590506108848161085e565b92915050565b6000602082840312156108a05761089f610827565b5b60006108ae84828501610875565b91505092915050565b60006108c28261082c565b9050919050565b6108d2816108b7565b81146108dd57600080fd5b50565b6000813590506108ef816108c9565b92915050565b60006020828403121561090b5761090a610827565b5b6000610919848285016108e0565b91505092915050565b60008115159050919050565b61093781610922565b82525050565b6000602082019050610952600083018461092e565b92915050565b610961816108b7565b82525050565b600060208201905061097c6000830184610958565b92915050565b61098b816107f3565b811461099657600080fd5b50565b6000813590506109a881610982565b92915050565b6000602082840312156109c4576109c3610827565b5b60006109d284828501610999565b91505092915050565b7f4e487b7100000000000000000000000000000000000000000000000000000000600052601260045260246000fd5b7f4e487b7100000000000000000000000000000000000000000000000000000000600052601160045260246000fd5b6000610a44826107f3565b9150610a4f836107f3565b925082610a5f57610a5e6109db565b5b828204905092915050565b7f4e487b7100000000000000000000000000000000000000000000000000000000600052603260045260246000fd5b6000610aa4826107f3565b91507fffffffffffffffffffffffffffffffffffffffffffffffffffffffffffffffff8203610ad657610ad5610a0a565b5b600182019050919050565b600081519050610af081610982565b92915050565b600060208284031215610b0c57610b0b610827565b5b6000610b1a84828501610ae1565b9150509291505056fea2646970667358221220367c9f70bfa5b10a5f59f435935aa97e0305a28898075db60190a696ac168bee64736f6c63430008110033",
  "devdoc": {
    "kind": "dev",
    "methods": {},
    "version": 1
  },
  "userdoc": {
    "kind": "user",
    "methods": {},
    "version": 1
  },
  "storageLayout": {
    "storage": [
      {
        "astId": 12,
        "contract": "contracts/Campaign.sol:Campaign",
        "label": "owner",
        "offset": 0,
        "slot": "0",
        "type": "t_address"
      },
      {
        "astId": 14,
        "contract": "contracts/Campaign.sol:Campaign",
        "label": "minimumContribution",
        "offset": 0,
        "slot": "1",
        "type": "t_uint256"
      },
      {
        "astId": 18,
        "contract": "contracts/Campaign.sol:Campaign",
        "label": "contributers",
        "offset": 0,
        "slot": "2",
        "type": "t_mapping(t_address,t_bool)"
      },
      {
        "astId": 23,
        "contract": "contracts/Campaign.sol:Campaign",
        "label": "contributersCount",
        "offset": 0,
        "slot": "3",
        "type": "t_uint256"
      },
      {
        "astId": 26,
        "contract": "contracts/Campaign.sol:Campaign",
        "label": "organizations",
        "offset": 0,
        "slot": "4",
        "type": "t_array(t_address)dyn_storage"
      }
    ],
    "types": {
      "t_address": {
        "encoding": "inplace",
        "label": "address",
        "numberOfBytes": "20"
      },
      "t_array(t_address)dyn_storage": {
        "base": "t_address",
        "encoding": "dynamic_array",
        "label": "address[]",
        "numberOfBytes": "32"
      },
      "t_bool": {
        "encoding": "inplace",
        "label": "bool",
        "numberOfBytes": "1"
      },
      "t_mapping(t_address,t_bool)": {
        "encoding": "mapping",
        "key": "t_address",
        "label": "mapping(address => bool)",
        "numberOfBytes": "32",
        "value": "t_bool"
      },
      "t_uint256": {
        "encoding": "inplace",
        "label": "uint256",
        "numberOfBytes": "32"
      }
    }
  }
}