{
  "address": "0xe7f1725E7734CE288F8367e1Bb143E90bb3F0512",
  "abi": [
    {
      "inputs": [],
      "stateMutability": "nonpayable",
      "type": "constructor"
    },
    {
      "inputs": [
        {
          "internalType": "uint256",
          "name": "",
          "type": "uint256"
        }
      ],
      "name": "campaigns",
      "outputs": [
        {
          "internalType": "address",
          "name": "",
          "type": "address"
        }
      ],
      "stateMutability": "view",
      "type": "function"
    },
    {
      "inputs": [],
      "name": "campaignsCount",
      "outputs": [
        {
          "internalType": "uint256",
          "name": "",
          "type": "uint256"
        }
      ],
      "stateMutability": "view",
      "type": "function"
    },
    {
      "inputs": [],
      "name": "contribute",
      "outputs": [],
      "stateMutability": "payable",
      "type": "function"
    },
    {
      "inputs": [
        {
          "internalType": "address",
          "name": "campaignAddress",
          "type": "address"
        }
      ],
      "name": "enrollInCampaign",
      "outputs": [],
      "stateMutability": "nonpayable",
      "type": "function"
    },
    {
      "inputs": [],
      "name": "getAllCampaigns",
      "outputs": [
        {
          "internalType": "address[]",
          "name": "",
          "type": "address[]"
        }
      ],
      "stateMutability": "view",
      "type": "function"
    },
    {
      "inputs": [],
      "name": "getBalance",
      "outputs": [
        {
          "internalType": "uint256",
          "name": "",
          "type": "uint256"
        }
      ],
      "stateMutability": "view",
      "type": "function"
    },
    {
      "inputs": [],
      "name": "getCampaignsCount",
      "outputs": [
        {
          "internalType": "uint256",
          "name": "",
          "type": "uint256"
        }
      ],
      "stateMutability": "view",
      "type": "function"
    },
    {
      "inputs": [],
      "name": "getMinimumContribution",
      "outputs": [
        {
          "internalType": "uint256",
          "name": "",
          "type": "uint256"
        }
      ],
      "stateMutability": "view",
      "type": "function"
    },
    {
      "inputs": [],
      "name": "incrementCampaignsCount",
      "outputs": [],
      "stateMutability": "nonpayable",
      "type": "function"
    },
    {
      "inputs": [],
      "name": "minimumContribution",
      "outputs": [
        {
          "internalType": "uint256",
          "name": "",
          "type": "uint256"
        }
      ],
      "stateMutability": "view",
      "type": "function"
    },
    {
      "inputs": [],
      "name": "owner",
      "outputs": [
        {
          "internalType": "address",
          "name": "",
          "type": "address"
        }
      ],
      "stateMutability": "view",
      "type": "function"
    },
    {
      "inputs": [
        {
          "internalType": "address payable",
          "name": "recipient",
          "type": "address"
        }
      ],
      "name": "withdrawAllMoney",
      "outputs": [],
      "stateMutability": "nonpayable",
      "type": "function"
    },
    {
      "inputs": [
        {
          "internalType": "address payable",
          "name": "recipient",
          "type": "address"
        },
        {
          "internalType": "uint256",
          "name": "amount",
          "type": "uint256"
        }
      ],
      "name": "withdrawMoney",
      "outputs": [],
      "stateMutability": "nonpayable",
      "type": "function"
    }
  ],
  "transactionHash": "0x58348a6398d96d5dd0b5f5f0b4a813759e4a702c4c304e82ee97a9fbb0f1b128",
  "args": [],
  "numDeployments": 1,
  "solcInputHash": "5eafb5e942e8ec9e86a64ef32557adb0",
  "bytecode": "0x608060405234801561001057600080fd5b50336000806101000a81548173ffffffffffffffffffffffffffffffffffffffff021916908373ffffffffffffffffffffffffffffffffffffffff16021790555060006004819055506109a3806100686000396000f3fe6080604052600436106100c25760003560e01c806386cdf6041161007f578063d0e0622011610059578063d0e0622014610246578063d7bb99ba1461026f578063f274c89714610279578063f84038b1146102a2576100c2565b806386cdf604146101c55780638da5cb5b146101f0578063937e09b11461021b576100c2565b80630adec93c146100c757806312065fe0146100f0578063141961bc1461011b57806344c89b65146101585780637dafd3c0146101835780637e6253da1461019a575b600080fd5b3480156100d357600080fd5b506100ee60048036038101906100e99190610653565b6102cd565b005b3480156100fc57600080fd5b50610105610376565b6040516101129190610699565b60405180910390f35b34801561012757600080fd5b50610142600480360381019061013d91906106e0565b61037e565b60405161014f919061072e565b60405180910390f35b34801561016457600080fd5b5061016d6103bd565b60405161017a9190610699565b60405180910390f35b34801561018f57600080fd5b506101986103c3565b005b3480156101a657600080fd5b506101af6103dd565b6040516101bc9190610699565b60405180910390f35b3480156101d157600080fd5b506101da6103e7565b6040516101e79190610807565b60405180910390f35b3480156101fc57600080fd5b50610205610475565b604051610212919061072e565b60405180910390f35b34801561022757600080fd5b50610230610499565b60405161023d9190610699565b60405180910390f35b34801561025257600080fd5b5061026d60048036038101906102689190610855565b61049f565b005b610277610514565b005b34801561028557600080fd5b506102a0600480360381019061029b9190610882565b61052f565b005b3480156102ae57600080fd5b506102b76105e6565b6040516102c49190610699565b60405180910390f35b60008054906101000a900473ffffffffffffffffffffffffffffffffffffffff1673ffffffffffffffffffffffffffffffffffffffff163373ffffffffffffffffffffffffffffffffffffffff161461032557600080fd5b8073ffffffffffffffffffffffffffffffffffffffff166108fc610347610376565b9081150290604051600060405180830381858888f19350505050158015610372573d6000803e3d6000fd5b5050565b600047905090565b6003818154811061038e57600080fd5b906000526020600020016000915054906101000a900473ffffffffffffffffffffffffffffffffffffffff1681565b60025481565b600260008154809291906103d6906108f1565b9190505550565b6000600254905090565b6060600380548060200260200160405190810160405280929190818152602001828054801561046b57602002820191906000526020600020905b8160009054906101000a900473ffffffffffffffffffffffffffffffffffffffff1673ffffffffffffffffffffffffffffffffffffffff1681526020019060010190808311610421575b5050505050905090565b60008054906101000a900473ffffffffffffffffffffffffffffffffffffffff1681565b60015481565b6003600254106104ae57600080fd5b6003819080600181540180825580915050600190039060005260206000200160009091909190916101000a81548173ffffffffffffffffffffffffffffffffffffffff021916908373ffffffffffffffffffffffffffffffffffffffff16021790555050565b34600460008282546105269190610939565b92505081905550565b60008054906101000a900473ffffffffffffffffffffffffffffffffffffffff1673ffffffffffffffffffffffffffffffffffffffff163373ffffffffffffffffffffffffffffffffffffffff161461058757600080fd5b61058f610376565b81111561059b57600080fd5b8173ffffffffffffffffffffffffffffffffffffffff166108fc829081150290604051600060405180830381858888f193505050501580156105e1573d6000803e3d6000fd5b505050565b6000600154905090565b600080fd5b600073ffffffffffffffffffffffffffffffffffffffff82169050919050565b6000610620826105f5565b9050919050565b61063081610615565b811461063b57600080fd5b50565b60008135905061064d81610627565b92915050565b600060208284031215610669576106686105f0565b5b60006106778482850161063e565b91505092915050565b6000819050919050565b61069381610680565b82525050565b60006020820190506106ae600083018461068a565b92915050565b6106bd81610680565b81146106c857600080fd5b50565b6000813590506106da816106b4565b92915050565b6000602082840312156106f6576106f56105f0565b5b6000610704848285016106cb565b91505092915050565b6000610718826105f5565b9050919050565b6107288161070d565b82525050565b6000602082019050610743600083018461071f565b92915050565b600081519050919050565b600082825260208201905092915050565b6000819050602082019050919050565b61077e8161070d565b82525050565b60006107908383610775565b60208301905092915050565b6000602082019050919050565b60006107b482610749565b6107be8185610754565b93506107c983610765565b8060005b838110156107fa5781516107e18882610784565b97506107ec8361079c565b9250506001810190506107cd565b5085935050505092915050565b6000602082019050818103600083015261082181846107a9565b905092915050565b6108328161070d565b811461083d57600080fd5b50565b60008135905061084f81610829565b92915050565b60006020828403121561086b5761086a6105f0565b5b600061087984828501610840565b91505092915050565b60008060408385031215610899576108986105f0565b5b60006108a78582860161063e565b92505060206108b8858286016106cb565b9150509250929050565b7f4e487b7100000000000000000000000000000000000000000000000000000000600052601160045260246000fd5b60006108fc82610680565b91507fffffffffffffffffffffffffffffffffffffffffffffffffffffffffffffffff820361092e5761092d6108c2565b5b600182019050919050565b600061094482610680565b915061094f83610680565b9250828201905080821115610967576109666108c2565b5b9291505056fea264697066735822122037dc5c6de8bfa463a664f5646e21a7962d650f34d6beb2f046d4bb14ebf4ae8664736f6c63430008110033",
  "devdoc": {
    "kind": "dev",
    "methods": {},
    "version": 1
  },
  "userdoc": {
    "kind": "user",
    "methods": {},
    "version": 1
  },
  "storageLayout": {
    "storage": [
      {
        "astId": 214,
        "contract": "contracts/Organization.sol:Organization",
        "label": "owner",
        "offset": 0,
        "slot": "0",
        "type": "t_address"
      },
      {
        "astId": 216,
        "contract": "contracts/Organization.sol:Organization",
        "label": "minimumContribution",
        "offset": 0,
        "slot": "1",
        "type": "t_uint256"
      },
      {
        "astId": 218,
        "contract": "contracts/Organization.sol:Organization",
        "label": "campaignsCount",
        "offset": 0,
        "slot": "2",
        "type": "t_uint256"
      },
      {
        "astId": 221,
        "contract": "contracts/Organization.sol:Organization",
        "label": "campaigns",
        "offset": 0,
        "slot": "3",
        "type": "t_array(t_address)dyn_storage"
      },
      {
        "astId": 223,
        "contract": "contracts/Organization.sol:Organization",
        "label": "totalDonations",
        "offset": 0,
        "slot": "4",
        "type": "t_uint256"
      }
    ],
    "types": {
      "t_address": {
        "encoding": "inplace",
        "label": "address",
        "numberOfBytes": "20"
      },
      "t_array(t_address)dyn_storage": {
        "base": "t_address",
        "encoding": "dynamic_array",
        "label": "address[]",
        "numberOfBytes": "32"
      },
      "t_uint256": {
        "encoding": "inplace",
        "label": "uint256",
        "numberOfBytes": "32"
      }
    }
  }
}