{
  "address": "0xe7f1725E7734CE288F8367e1Bb143E90bb3F0512",
  "abi": [
    {
      "inputs": [],
      "stateMutability": "nonpayable",
      "type": "constructor"
    },
    {
      "inputs": [
        {
          "internalType": "uint256",
          "name": "",
          "type": "uint256"
        }
      ],
      "name": "campaigns",
      "outputs": [
        {
          "internalType": "address",
          "name": "",
          "type": "address"
        }
      ],
      "stateMutability": "view",
      "type": "function"
    },
    {
      "inputs": [],
      "name": "campaignsCount",
      "outputs": [
        {
          "internalType": "uint256",
          "name": "",
          "type": "uint256"
        }
      ],
      "stateMutability": "view",
      "type": "function"
    },
    {
      "inputs": [],
      "name": "contribute",
      "outputs": [],
      "stateMutability": "payable",
      "type": "function"
    },
    {
      "inputs": [
        {
          "internalType": "address",
          "name": "campaignAddress",
          "type": "address"
        }
      ],
      "name": "enrollInCampaign",
      "outputs": [],
      "stateMutability": "nonpayable",
      "type": "function"
    },
    {
      "inputs": [],
      "name": "getAllCampaigns",
      "outputs": [
        {
          "internalType": "address[]",
          "name": "",
          "type": "address[]"
        }
      ],
      "stateMutability": "view",
      "type": "function"
    },
    {
      "inputs": [],
      "name": "getBalance",
      "outputs": [
        {
          "internalType": "uint256",
          "name": "",
          "type": "uint256"
        }
      ],
      "stateMutability": "view",
      "type": "function"
    },
    {
      "inputs": [],
      "name": "getCampaignsCount",
      "outputs": [
        {
          "internalType": "uint256",
          "name": "",
          "type": "uint256"
        }
      ],
      "stateMutability": "view",
      "type": "function"
    },
    {
      "inputs": [],
      "name": "incrementCampaignsCount",
      "outputs": [],
      "stateMutability": "nonpayable",
      "type": "function"
    },
    {
      "inputs": [],
      "name": "minimumContribution",
      "outputs": [
        {
          "internalType": "uint256",
          "name": "",
          "type": "uint256"
        }
      ],
      "stateMutability": "view",
      "type": "function"
    },
    {
      "inputs": [],
      "name": "owner",
      "outputs": [
        {
          "internalType": "address",
          "name": "",
          "type": "address"
        }
      ],
      "stateMutability": "view",
      "type": "function"
    },
    {
      "inputs": [
        {
          "internalType": "address payable",
          "name": "vendor",
          "type": "address"
        },
        {
          "internalType": "uint256",
          "name": "amount",
          "type": "uint256"
        }
      ],
      "name": "payToVendor",
      "outputs": [],
      "stateMutability": "nonpayable",
      "type": "function"
    }
  ],
  "transactionHash": "0x0b303358c035934b300713ab76c2ee0f805a2ec49565955de804c9c635a6bc6d",
  "args": [],
  "numDeployments": 1,
  "solcInputHash": "f5847fcf2882849b94ad0c03ba8ba221",
  "bytecode": "0x608060405234801561001057600080fd5b50336000806101000a81548173ffffffffffffffffffffffffffffffffffffffff021916908373ffffffffffffffffffffffffffffffffffffffff16021790555060006004819055506108a4806100686000396000f3fe60806040526004361061009c5760003560e01c80637e6253da116100645780637e6253da1461017457806386cdf6041461019f5780638da5cb5b146101ca578063937e09b1146101f5578063d0e0622014610220578063d7bb99ba146102495761009c565b806312065fe0146100a1578063141961bc146100cc57806344c89b65146101095780634bc8dd1f146101345780637dafd3c01461015d575b600080fd5b3480156100ad57600080fd5b506100b6610253565b6040516100c391906104ba565b60405180910390f35b3480156100d857600080fd5b506100f360048036038101906100ee9190610506565b61025b565b6040516101009190610574565b60405180910390f35b34801561011557600080fd5b5061011e61029a565b60405161012b91906104ba565b60405180910390f35b34801561014057600080fd5b5061015b600480360381019061015691906105cd565b6102a0565b005b34801561016957600080fd5b50610172610335565b005b34801561018057600080fd5b5061018961034f565b60405161019691906104ba565b60405180910390f35b3480156101ab57600080fd5b506101b4610359565b6040516101c191906106cb565b60405180910390f35b3480156101d657600080fd5b506101df6103e7565b6040516101ec9190610574565b60405180910390f35b34801561020157600080fd5b5061020a61040b565b60405161021791906104ba565b60405180910390f35b34801561022c57600080fd5b5061024760048036038101906102429190610719565b610411565b005b610251610486565b005b600047905090565b6003818154811061026b57600080fd5b906000526020600020016000915054906101000a900473ffffffffffffffffffffffffffffffffffffffff1681565b60025481565b6102a8610253565b8111156102ea576040517f08c379a00000000000000000000000000000000000000000000000000000000081526004016102e1906107a3565b60405180910390fd5b8173ffffffffffffffffffffffffffffffffffffffff166108fc829081150290604051600060405180830381858888f19350505050158015610330573d6000803e3d6000fd5b505050565b60026000815480929190610348906107f2565b9190505550565b6000600254905090565b606060038054806020026020016040519081016040528092919081815260200182805480156103dd57602002820191906000526020600020905b8160009054906101000a900473ffffffffffffffffffffffffffffffffffffffff1673ffffffffffffffffffffffffffffffffffffffff1681526020019060010190808311610393575b5050505050905090565b60008054906101000a900473ffffffffffffffffffffffffffffffffffffffff1681565b60015481565b60036002541061042057600080fd5b6003819080600181540180825580915050600190039060005260206000200160009091909190916101000a81548173ffffffffffffffffffffffffffffffffffffffff021916908373ffffffffffffffffffffffffffffffffffffffff16021790555050565b3460046000828254610498919061083a565b92505081905550565b6000819050919050565b6104b4816104a1565b82525050565b60006020820190506104cf60008301846104ab565b92915050565b600080fd5b6104e3816104a1565b81146104ee57600080fd5b50565b600081359050610500816104da565b92915050565b60006020828403121561051c5761051b6104d5565b5b600061052a848285016104f1565b91505092915050565b600073ffffffffffffffffffffffffffffffffffffffff82169050919050565b600061055e82610533565b9050919050565b61056e81610553565b82525050565b60006020820190506105896000830184610565565b92915050565b600061059a82610533565b9050919050565b6105aa8161058f565b81146105b557600080fd5b50565b6000813590506105c7816105a1565b92915050565b600080604083850312156105e4576105e36104d5565b5b60006105f2858286016105b8565b9250506020610603858286016104f1565b9150509250929050565b600081519050919050565b600082825260208201905092915050565b6000819050602082019050919050565b61064281610553565b82525050565b60006106548383610639565b60208301905092915050565b6000602082019050919050565b60006106788261060d565b6106828185610618565b935061068d83610629565b8060005b838110156106be5781516106a58882610648565b97506106b083610660565b925050600181019050610691565b5085935050505092915050565b600060208201905081810360008301526106e5818461066d565b905092915050565b6106f681610553565b811461070157600080fd5b50565b600081359050610713816106ed565b92915050565b60006020828403121561072f5761072e6104d5565b5b600061073d84828501610704565b91505092915050565b600082825260208201905092915050565b7f496e73756666696369656e7420636f6e74726163742062616c616e6365000000600082015250565b600061078d601d83610746565b915061079882610757565b602082019050919050565b600060208201905081810360008301526107bc81610780565b9050919050565b7f4e487b7100000000000000000000000000000000000000000000000000000000600052601160045260246000fd5b60006107fd826104a1565b91507fffffffffffffffffffffffffffffffffffffffffffffffffffffffffffffffff820361082f5761082e6107c3565b5b600182019050919050565b6000610845826104a1565b9150610850836104a1565b9250828201905080821115610868576108676107c3565b5b9291505056fea26469706673582212205e63539fd03af17d5dd8d54561da796cdd8efd172a40c6360598bd882a09a0a164736f6c63430008110033",
  "devdoc": {
    "kind": "dev",
    "methods": {},
    "version": 1
  },
  "userdoc": {
    "kind": "user",
    "methods": {},
    "version": 1
  },
  "storageLayout": {
    "storage": [
      {
        "astId": 214,
        "contract": "contracts/Organization.sol:Organization",
        "label": "owner",
        "offset": 0,
        "slot": "0",
        "type": "t_address"
      },
      {
        "astId": 216,
        "contract": "contracts/Organization.sol:Organization",
        "label": "minimumContribution",
        "offset": 0,
        "slot": "1",
        "type": "t_uint256"
      },
      {
        "astId": 218,
        "contract": "contracts/Organization.sol:Organization",
        "label": "campaignsCount",
        "offset": 0,
        "slot": "2",
        "type": "t_uint256"
      },
      {
        "astId": 221,
        "contract": "contracts/Organization.sol:Organization",
        "label": "campaigns",
        "offset": 0,
        "slot": "3",
        "type": "t_array(t_address)dyn_storage"
      },
      {
        "astId": 223,
        "contract": "contracts/Organization.sol:Organization",
        "label": "totalDonations",
        "offset": 0,
        "slot": "4",
        "type": "t_uint256"
      }
    ],
    "types": {
      "t_address": {
        "encoding": "inplace",
        "label": "address",
        "numberOfBytes": "20"
      },
      "t_array(t_address)dyn_storage": {
        "base": "t_address",
        "encoding": "dynamic_array",
        "label": "address[]",
        "numberOfBytes": "32"
      },
      "t_uint256": {
        "encoding": "inplace",
        "label": "uint256",
        "numberOfBytes": "32"
      }
    }
  }
}