{
  "_format": "hh-sol-artifact-1",
  "contractName": "Campaign",
  "sourceName": "contracts/Campaign.sol",
  "abi": [
    {
      "inputs": [],
      "stateMutability": "nonpayable",
      "type": "constructor"
    },
    {
      "inputs": [],
      "name": "contribute",
      "outputs": [],
      "stateMutability": "payable",
      "type": "function"
    },
    {
      "inputs": [
        {
          "internalType": "address",
          "name": "",
          "type": "address"
        }
      ],
      "name": "contributers",
      "outputs": [
        {
          "internalType": "bool",
          "name": "",
          "type": "bool"
        }
      ],
      "stateMutability": "view",
      "type": "function"
    },
    {
      "inputs": [],
      "name": "contributersCount",
      "outputs": [
        {
          "internalType": "uint256",
          "name": "",
          "type": "uint256"
        }
      ],
      "stateMutability": "view",
      "type": "function"
    },
    {
      "inputs": [],
      "name": "getBalance",
      "outputs": [
        {
          "internalType": "uint256",
          "name": "",
          "type": "uint256"
        }
      ],
      "stateMutability": "view",
      "type": "function"
    },
    {
      "inputs": [],
      "name": "minimumContribution",
      "outputs": [
        {
          "internalType": "uint256",
          "name": "",
          "type": "uint256"
        }
      ],
      "stateMutability": "view",
      "type": "function"
    },
    {
      "inputs": [],
      "name": "owner",
      "outputs": [
        {
          "internalType": "address",
          "name": "",
          "type": "address"
        }
      ],
      "stateMutability": "view",
      "type": "function"
    },
    {
      "inputs": [
        {
          "internalType": "address payable",
          "name": "recipient",
          "type": "address"
        }
      ],
      "name": "withdrawMoney",
      "outputs": [],
      "stateMutability": "nonpayable",
      "type": "function"
    }
  ],
  "bytecode": "0x608060405234801561001057600080fd5b50336000806101000a81548173ffffffffffffffffffffffffffffffffffffffff021916908373ffffffffffffffffffffffffffffffffffffffff1602179055506104e1806100606000396000f3fe6080604052600436106100705760003560e01c80638da5cb5b1161004e5780638da5cb5b14610106578063937e09b114610131578063d7bb99ba1461015c578063e9f146a31461016657610070565b806312065fe0146100755780632f971029146100a057806334b66460146100c9575b600080fd5b34801561008157600080fd5b5061008a610191565b60405161009791906102be565b60405180910390f35b3480156100ac57600080fd5b506100c760048036038101906100c2919061033c565b610199565b005b3480156100d557600080fd5b506100f060048036038101906100eb91906103a7565b6101e3565b6040516100fd91906103ef565b60405180910390f35b34801561011257600080fd5b5061011b610203565b6040516101289190610419565b60405180910390f35b34801561013d57600080fd5b50610146610227565b60405161015391906102be565b60405180910390f35b61016461022d565b005b34801561017257600080fd5b5061017b61029f565b60405161018891906102be565b60405180910390f35b600047905090565b8073ffffffffffffffffffffffffffffffffffffffff166108fc479081150290604051600060405180830381858888f193505050501580156101df573d6000803e3d6000fd5b5050565b60026020528060005260406000206000915054906101000a900460ff1681565b60008054906101000a900473ffffffffffffffffffffffffffffffffffffffff1681565b60015481565b6001600260003373ffffffffffffffffffffffffffffffffffffffff1673ffffffffffffffffffffffffffffffffffffffff16815260200190815260200160002060006101000a81548160ff0219169083151502179055506003600081548092919061029890610463565b9190505550565b60035481565b6000819050919050565b6102b8816102a5565b82525050565b60006020820190506102d360008301846102af565b92915050565b600080fd5b600073ffffffffffffffffffffffffffffffffffffffff82169050919050565b6000610309826102de565b9050919050565b610319816102fe565b811461032457600080fd5b50565b60008135905061033681610310565b92915050565b600060208284031215610352576103516102d9565b5b600061036084828501610327565b91505092915050565b6000610374826102de565b9050919050565b61038481610369565b811461038f57600080fd5b50565b6000813590506103a18161037b565b92915050565b6000602082840312156103bd576103bc6102d9565b5b60006103cb84828501610392565b91505092915050565b60008115159050919050565b6103e9816103d4565b82525050565b600060208201905061040460008301846103e0565b92915050565b61041381610369565b82525050565b600060208201905061042e600083018461040a565b92915050565b7f4e487b7100000000000000000000000000000000000000000000000000000000600052601160045260246000fd5b600061046e826102a5565b91507fffffffffffffffffffffffffffffffffffffffffffffffffffffffffffffffff82036104a05761049f610434565b5b60018201905091905056fea2646970667358221220f24b5ee3d2347bfbf31659dce0ba4889c232ae0a4820a577c049b90de7de1c4364736f6c63430008110033",
  "linkReferences": {},
  "deployedLinkReferences": {}
}