{
  "_format": "hh-sol-artifact-1",
  "contractName": "Campaign",
  "sourceName": "contracts/Campaign.sol",
  "abi": [
    {
      "inputs": [
        {
          "internalType": "uint256",
          "name": "minimum",
          "type": "uint256"
        },
        {
          "internalType": "address",
          "name": "creator",
          "type": "address"
        }
      ],
      "stateMutability": "nonpayable",
      "type": "constructor"
    },
    {
      "inputs": [],
      "name": "contribute",
      "outputs": [],
      "stateMutability": "payable",
      "type": "function"
    },
    {
      "inputs": [
        {
          "internalType": "address",
          "name": "",
          "type": "address"
        }
      ],
      "name": "contributers",
      "outputs": [
        {
          "internalType": "bool",
          "name": "",
          "type": "bool"
        }
      ],
      "stateMutability": "view",
      "type": "function"
    },
    {
      "inputs": [],
      "name": "contributersCount",
      "outputs": [
        {
          "internalType": "uint256",
          "name": "",
          "type": "uint256"
        }
      ],
      "stateMutability": "view",
      "type": "function"
    },
    {
      "inputs": [],
      "name": "getBalance",
      "outputs": [
        {
          "internalType": "uint256",
          "name": "",
          "type": "uint256"
        }
      ],
      "stateMutability": "view",
      "type": "function"
    },
    {
      "inputs": [],
      "name": "getMinimumContribution",
      "outputs": [
        {
          "internalType": "uint256",
          "name": "",
          "type": "uint256"
        }
      ],
      "stateMutability": "view",
      "type": "function"
    },
    {
      "inputs": [],
      "name": "minimumContribution",
      "outputs": [
        {
          "internalType": "uint256",
          "name": "",
          "type": "uint256"
        }
      ],
      "stateMutability": "view",
      "type": "function"
    },
    {
      "inputs": [],
      "name": "owner",
      "outputs": [
        {
          "internalType": "address",
          "name": "",
          "type": "address"
        }
      ],
      "stateMutability": "view",
      "type": "function"
    },
    {
      "inputs": [
        {
          "internalType": "address payable",
          "name": "recipient",
          "type": "address"
        }
      ],
      "name": "withdrawMoney",
      "outputs": [],
      "stateMutability": "nonpayable",
      "type": "function"
    }
  ],
  "bytecode": "0x608060405234801561001057600080fd5b5060405161068938038061068983398181016040528101906100329190610119565b806000806101000a81548173ffffffffffffffffffffffffffffffffffffffff021916908373ffffffffffffffffffffffffffffffffffffffff160217905550816001819055505050610159565b600080fd5b6000819050919050565b61009881610085565b81146100a357600080fd5b50565b6000815190506100b58161008f565b92915050565b600073ffffffffffffffffffffffffffffffffffffffff82169050919050565b60006100e6826100bb565b9050919050565b6100f6816100db565b811461010157600080fd5b50565b600081519050610113816100ed565b92915050565b600080604083850312156101305761012f610080565b5b600061013e858286016100a6565b925050602061014f85828601610104565b9150509250929050565b610521806101686000396000f3fe60806040526004361061007b5760003560e01c8063937e09b11161004e578063937e09b11461013c578063d7bb99ba14610167578063e9f146a314610171578063f84038b11461019c5761007b565b806312065fe0146100805780632f971029146100ab57806334b66460146100d45780638da5cb5b14610111575b600080fd5b34801561008c57600080fd5b506100956101c7565b6040516100a291906102fe565b60405180910390f35b3480156100b757600080fd5b506100d260048036038101906100cd919061037c565b6101cf565b005b3480156100e057600080fd5b506100fb60048036038101906100f691906103e7565b610219565b604051610108919061042f565b60405180910390f35b34801561011d57600080fd5b50610126610239565b6040516101339190610459565b60405180910390f35b34801561014857600080fd5b5061015161025d565b60405161015e91906102fe565b60405180910390f35b61016f610263565b005b34801561017d57600080fd5b506101866102d5565b60405161019391906102fe565b60405180910390f35b3480156101a857600080fd5b506101b16102db565b6040516101be91906102fe565b60405180910390f35b600047905090565b8073ffffffffffffffffffffffffffffffffffffffff166108fc479081150290604051600060405180830381858888f19350505050158015610215573d6000803e3d6000fd5b5050565b60026020528060005260406000206000915054906101000a900460ff1681565b60008054906101000a900473ffffffffffffffffffffffffffffffffffffffff1681565b60015481565b6001600260003373ffffffffffffffffffffffffffffffffffffffff1673ffffffffffffffffffffffffffffffffffffffff16815260200190815260200160002060006101000a81548160ff021916908315150217905550600360008154809291906102ce906104a3565b9190505550565b60035481565b6000600154905090565b6000819050919050565b6102f8816102e5565b82525050565b600060208201905061031360008301846102ef565b92915050565b600080fd5b600073ffffffffffffffffffffffffffffffffffffffff82169050919050565b60006103498261031e565b9050919050565b6103598161033e565b811461036457600080fd5b50565b60008135905061037681610350565b92915050565b60006020828403121561039257610391610319565b5b60006103a084828501610367565b91505092915050565b60006103b48261031e565b9050919050565b6103c4816103a9565b81146103cf57600080fd5b50565b6000813590506103e1816103bb565b92915050565b6000602082840312156103fd576103fc610319565b5b600061040b848285016103d2565b91505092915050565b60008115159050919050565b61042981610414565b82525050565b60006020820190506104446000830184610420565b92915050565b610453816103a9565b82525050565b600060208201905061046e600083018461044a565b92915050565b7f4e487b7100000000000000000000000000000000000000000000000000000000600052601160045260246000fd5b60006104ae826102e5565b91507fffffffffffffffffffffffffffffffffffffffffffffffffffffffffffffffff82036104e0576104df610474565b5b60018201905091905056fea2646970667358221220d9b85ff38158d23113fc9af3e6e7aad400488792459e4b9585fd05c060a3470564736f6c63430008110033",
  "linkReferences": {},
  "deployedLinkReferences": {}
}